:020000040800F2
:10000000D806002029020008DD050008B103000819
:1000100095040008D10200081B130008000000002E
:10002000000000000000000000000000F9070008C8
:10003000D5020008000000006D0600081109000844
:10004000430200084302000843020008430200087C
:10005000430200084302000843020008430200086C
:10006000430200084302000843020008430200085C
:10007000430200084302000843020008430200084C
:10008000430200084302000843020008430200083C
:10009000430200084302000843020008430200082C
:1000A000430200084302000843020008430200081C
:1000B000430200084302000843020008430200080C
:1000C00043020008430200084302000843020008FC
:1000D00043020008FD100008430200084302000824
:1000E00043020008430200084302000843020008DC
:1000F00043020008430200084302000843020008CC
:100100004302000843020008DD0B00084302000818
:1001100043020008430200084302000843020008AB
:10012000430200084302000843020008430200089B
:10013000430200084302000843020008430200088B
:10014000430200084302000843020008430200087B
:10015000430200084302000843020008430200086B
:10016000430200084302000843020008430200085B
:10017000430200084302000843020008430200084B
:10018000430200084302000800F002F800F03CF8C7
:100190000AA090E8000C82448344AAF10107DA45E2
:1001A00001D100F031F8AFF2090EBAE80F0013F0F8
:1001B000010F18BFFB1A43F001031847381F000056
:1001C000581F0000103A24BF78C878C1FAD85207E7
:1001D00024BF30C830C144BF04680C6070470000C1
:1001E0000023002400250026103A28BF78C1FBD840
:1001F000520728BF30C148BF0B6070471FB501F0E0
:100200006EFF1FBD10B510BD00F033F81146FFF7AB
:10021000F5FF01F01DF900F051F803B4FFF7F2FF0C
:1002200003BC01F07CF800000948804709480047FA
:10023000FEE7FEE7FEE7FEE7FEE7FEE7FEE7FEE796
:10024000FEE7FEE704480549054A064B70470000F3
:100250001509000889010008D8000020D8060020F0
:10026000D8020020D80200207047704770477047BE
:100270007047754600F028F8AE46050069465346BB
:1002800020F00700854618B020B5FFF7DBFFBDE87A
:1002900020404FF000064FF000074FF000084FF0ED
:1002A000000B21F00701AC46ACE8C009ACE8C0097E
:1002B000ACE8C009ACE8C0098D4670470446AFF30E
:1002C00000802046FFF7A9FF004870477800002013
:1002D00000BFFEE77047F0B50A4600210023002466
:1002E00000BF3DE0012505FA01F3156805EA0304A6
:1002F0009C4234D105684F000326BE40B5430560DB
:1003000015794E00B5400668354305601579012D15
:1003100002D01579022D16D185684F000326BE4004
:10032000B543856055794E00B54086683543856094
:10033000456801268E40B5434560456896798E40F4
:10034000B6B235434560C5684F000326BE40B5438D
:10035000C560D5794E00B540C6683543C560491CB7
:100360001029BFD3F0BDF0B5002300244D07ED0EDA
:1003700002FA05F3CE1000F1200555F826504E077D
:10038000F70E0F26BE40B543CF1000F1200646F809
:100390002750CE1000F1200555F8265045EA0304F9
:1003A000CE1000F1200545F82640F0BD01837047CE
:1003B00000BFFEE74CF6CC400149086070470000E2
:1003C0000030004070B505460C4645F2555000F02F
:1003D0001FF8284600F010F8204600F013F800F04F
:1003E00003F8FFF7E7FF70BD4AF6AA20014908604D
:1003F000704700000030004001494860704700002D
:100400000030004001498860704700000030004023
:100410000149086070470000003000401CB5012110
:10042000102000F025F93820009001208DF80400FC
:1004300000208DF8060001208DF8070002208DF8BD
:10044000050069461148FFF746FF0121402000F0F2
:100450000FF94FF40070009001208DF80400002087
:100460008DF8060001208DF8070002208DF80500A8
:1004700069460748FFF72FFF18210448FFF796FF4A
:100480004FF400710248FFF791FF1CBD00100240BD
:100490000018024000BFFEE71CB50121052000F056
:1004A000E7F848F22000009001208DF804000020B9
:1004B0008DF8060003208DF8050001208DF8070057
:1004C00069460A48FFF707FF182000906946084868
:1004D000FFF701FF0020074908600749C1F89402AF
:1004E000064908600649C1F890021CBD00000240A0
:1004F00000180240BC024042000040428C024342CD
:100500000000434200B587B00121102000F0E0F860
:100510000121084600F0ACF8072209212D48FFF719
:1005200022FF07220A212B48FFF71DFF4FF400701E
:10053000059002208DF8180000208DF81A00032085
:100540008DF8190001208DF81B0005A92148FFF73F
:10055000C2FE4FF48060059002208DF81800002044
:100560008DF81A0003208DF8190001208DF81B006A
:1005700005A91848FFF7AFFE4FF4E13001900020C5
:10058000ADF80800ADF810000C20ADF80E0000200A
:10059000ADF80C00ADF80A0001A90F4800F04EFEBE
:1005A00001210D4800F0EEFD012240F225510A48DC
:1005B00000F01EFE25208DF8000001208DF80300BC
:1005C0008DF801008DF80200684600F009F807B0C8
:1005D00000BD000000000240001001407047000014
:1005E00070B5002100230F22C4781CB3174C246877
:1005F00004F4E064C4F5E064C4F30721C1F1040429
:10060000E3B20A4144789C40E1B28478144021432B
:100610000C07210E0E4C05786155047804F01F0577
:100620000124AC4005786D11AD0005F1E025C5F859
:10063000004109E0047804F01F050124AC40054D99
:100640000678761145F8264070BD00000CED00E0FC
:1006500000E400E080E100E002490143024A116049
:10066000704700000000FA050CED00E07047000044
:1006700029B1064A12680243044B1A6004E0034A97
:1006800012688243014B1A60704700003038024004
:1006900029B1064A12680243044B1A6004E0034A77
:1006A00012688243014B1A607047000040380240D4
:1006B00029B1064A12680243044B1A6004E0034A57
:1006C00012688243014B1A607047000020380240D4
:1006D00029B1064A12680243044B1A6004E0034A37
:1006E00012688243014B1A60704700004438024090
:1006F00029B1064A12680243044B1A6004E0034A17
:1007000012688243014B1A6070470000243802408F
:10071000F0B5002100220024022500260223324FDA
:100720003F6807F00C0121B1042905D0082937D111
:1007300005E02E4F076036E02D4F076033E02A4F6B
:100740003F1F3F68C7F38056274F3F1F3F6807F0A2
:100750003F036EB1264FB7FBF3F7DFF88CC0ACF167
:10076000040CDCF800C0CCF3881C07FB0CF40CE094
:100770001E4FB7FBF3F7DFF870C0ACF1040CDCF8E8
:1007800000C0CCF3881C07FB0CF4174F3F1F3F68D9
:10079000C7F301477F1C7D00B4FBF5F7076002E05B
:1007A000124F076000BF00BF0F4F3F6807F0F00116
:1007B0000909104F7A5C0768D74047600A4F3F68C5
:1007C00007F4E051890A0B4F7A5C4768D74087608D
:1007D000054F3F6807F46041490B064F7A5C476854
:1007E000D740C760F0BD0000083802400024F40084
:1007F00000127A0000000020704700000CB50020B5
:10080000019000903448006840F48030324908601C
:1008100000BF3148006800F4003000900198401C8F
:100820000190009818B90198B0F5A04FF1D12A486D
:10083000006800F4003010B10120009001E00020B9
:1008400000900098012846D123484030006840F0CD
:1008500080502149403108602048006840F4404001
:100860001E4908601C48083000681B4908310860B0
:100870000846006840F4004008600846006840F4FC
:10088000A05008601648091F0860081F006840F063
:100890008070091F086000BF0F48006800F00070FA
:1008A0000028F9D040F205700E4908600A48083067
:1008B000006820F003000849083108600846006815
:1008C00040F00200086000BF03480830006800F0F4
:1008D0000C000828F8D10CBD003802400070004020
:1008E00008544007003C0240042808D14FF0E021A2
:1008F000096941F004014FF0E022116107E04FF077
:10090000E021096921F004014FF0E02211617047F4
:100910007047000010B51548006840F47000134996
:1009200008601348006840F0010011490860002089
:100930000F49083108600E4800680E4908400C490C
:1009400008600D48091D0860081F006820F4802019
:10095000091F0860002006490C310860FFF74EFFB0
:100960004FF0006001498039086010BD88ED00E05B
:1009700000380240FFFFF6FE10300024F0B50C46B0
:10098000154600210022068C4FF6FE773E40068475
:10099000018B028C4FF60C7631407E1C06EA031662
:1009A0002E4331434FF6F576324044F00106324390
:1009B00001830284F0BDF0B50C46154600210022EB
:1009C0000026078C4FF6EF7C07EA0C070784018BA3
:1009D000028C4FF6FF7707EA041640F6FF473940CE
:1009E0004FF6FF7707EA033739434FF6FF7707EAF9
:1009F000052739434FF65F773A4046F010073A43F0
:100A000001830284F0BD000000B585B00121022001
:100A1000FFF72EFE0820039002208DF810008DF8BD
:100A2000110000208DF8130003A91848FFF753FCAC
:100A3000012203211548FFF796FC01210846FFF724
:100A400027FE4FF0804000F05FF94FF6FF700190F5
:100A50000020ADF80000ADF80800ADF802006946CE
:100A60004FF0804000F008FB00231A4660214FF051
:100A7000804000F0E1FA00214FF0804000F0DAFA07
:100A80000121880700F033F905B000BD00040240E1
:100A900030B58BB004460D4601210220FFF7F8FD6A
:100AA00001210220FFF7E4FD022204212848FFF77C
:100AB0005AFC022205212648FFF755FC30200990F8
:100AC00002208DF8280003208DF8290000208DF8E1
:100AD0002A0001208DF82B0009A91D48FFF7FBFB18
:100AE000A8B2ADF818000020ADF81A000794ADF8D0
:100AF000200006A9174800F0BFFA6020ADF80400F6
:100B00000120ADF806000020ADF8100001A9114841
:100B100000F0DCF901A90F4800F020FA08210D4887
:100B200000F012FA08210B4800F06AFA0121094886
:100B300000F0CEF80121074800F0D9F8002105485F
:100B400000F074FA0021034800F072FA0BB030BDD7
:100B5000000402400004004000B585B001210220DD
:100B6000FFF786FD8020039002208DF810008DF89D
:100B7000110000208DF8130003A91648FFF7ABFB06
:100B8000022207211348FFF7EEFB01210420FFF7A3
:100B90007FFD114800F0B8F84FF6FF70019000207B
:100BA000ADF80000ADF80800ADF8020069460A484B
:100BB00000F062FA00231A466021074800F03CFA70
:100BC0000021054800F036FA0121034800F08FF8B3
:100BD00005B000BD000402400008004010B501212E
:100BE0001C4800F059F901282ED11B480088401CF0
:100BF00019490880084600880A2825D10020088065
:100C00004FF08040406A1549088015480068154932
:100C1000088000214FF0804000F00CFA00211048BD
:100C2000243800F007FA01200F4908700F480088A7
:100C3000401C0E49088008460088322804D1002054
:100C4000088001200A4908700121024800F04CF890
:100C500010BD0000000C0040520000205600002093
:100C600024080040580000205000002054000020BC
:100C7000510000207FB505460C4601210820FFF7F2
:100C800007FD0295ADF804400020ADF80600ADF870
:100C90000C0001A90D4800F0EFF9012211460B48A4
:100CA00000F00BF90121094800F021F832208DF8FD
:100CB000000000208DF801008DF8020001208DF861
:100CC00003006846FFF78CFC7FBD0000000C00406D
:100CD00021B1028842F08002028004E002884FF6CF
:100CE0007F731A4002807047CA430282704721B165
:100CF000028842F00102028004E002884FF6FE738F
:100D00001A4002807047000010B5044655488442DE
:100D100008D101210846FFF7EBFC00210120FFF775
:100D2000E7FC9DE0B4F1804F08D101210846FFF7B0
:100D3000BFFC00210120FFF7BBFC91E04A48844240
:100D400008D101210220FFF7B3FC00210220FFF7A8
:100D5000AFFC85E04548844208D101210420FFF71B
:100D6000A7FC00210420FFF7A3FC79E0404884425F
:100D700008D101210820FFF79BFC00210820FFF784
:100D800097FC6DE03B48844208D101211020FFF719
:100D90008FFC00211020FFF78BFC61E03648844275
:100DA00008D101212020FFF783FC00212020FFF73C
:100DB0007FFC55E03148844208D101210220FFF731
:100DC00097FC00210220FFF793FC49E02C48844265
:100DD00009D101210804FFF78BFC00214FF480307A
:100DE000FFF786FC3CE02748844209D101214804F2
:100DF000FFF77EFC00214FF40030FFF779FC2FE075
:100E00002148844209D101218804FFF771FC0021A7
:100E10004FF48020FFF76CFC22E01C48844208D18C
:100E200001214020FFF744FC00214020FFF740FC57
:100E300016E01748844208D101218020FFF738FCD2
:100E400000218020FFF734FC0AE01248844207D1D9
:100E500001218015FFF72CFC0021A015FFF728FCCD
:100E600010BD0000000001400004004000080040E8
:100E7000000C00400010004000140040000401403D
:100E8000004001400044014000480140001800407B
:100E9000001C00400020004030B502460020002326
:100EA0000024158A05EA0103958905EA010413B1B6
:100EB0000CB1012000E0002030BD1AB183890B4342
:100EC000838102E083898B438381704770B500245E
:100ED00000220023058C4FF6FE7635400584028CF7
:100EE0008388048B4FF68F752C40B51E2C400D88DF
:100EF0002C43751E2A408D892A434D882A43104D64
:100F0000A84202D00F4DA84213D14FF6F7752A40E0
:100F1000CD892A434FF6FB752A408D882A434FF628
:100F2000FF652B404FF6FF552B400D8A2B434D8A12
:100F30002B43838004838D684563028470BD000069
:100F400000000140000401400A460021018B4FF6D9
:100F5000F7731940114301837047000070B50024F6
:100F600000220023058C4FF6EF7635400584028C75
:100F70008388048B48F6FF752C404FF6FF452C40C4
:100F80000D884FF6FF7606EA05252C434FF6DF75F0
:100F90002A408D8906EA05152A434D8806EA05157B
:100FA0002A43154DA84202D0144DA8421DD14FF638
:100FB0007F752A40CD894FF6FF7606EA05152A434C
:100FC0004FF6BF752A408D8806EA05152A434FF66D
:100FD000FF352B404FF2FF752B400D8A06EA850541
:100FE0002B434D8A06EA85052B43838004838D6855
:100FF0008563028470BD00000000014000040140D0
:101000000A460021018B4FF2FF7319404FF6FF7320
:1010100003EA02231943018370470A46002101892C
:101020004FF68F7319401143018170474163704738
:1010300081637047416270472DE9F04104460D46D7
:1010400016461F46602D06D13B46012231462046FA
:10105000FFF7B1FC05E03B46012231462046FFF791
:101060008DFC29462046FFF7D8FF208940F0070075
:101070002081BDE8F081000000220288184B9842D0
:101080000ED0184B98420BD0B0F1804F08D0164BC1
:10109000984205D0154B984202D0154B984204D186
:1010A0004FF68F731A404B881A43124B984207D061
:1010B000114B984204D04FF6FF431A400B891A4354
:1010C00002804B68C3620B880385054B984202D0AF
:1010D000044B984201D18B7A0386012383827047A7
:1010E00000000140000401400004004000080040EE
:1010F000000C0040001000400014004010B540F209
:1011000025511D4800F04AF810B31B4800F000F9C3
:10111000C4B21A48008800F40040C8B917480088D3
:1011200000F4804060B10A2C03D0002013490880ED
:1011300020E01248008840F400401049088019E07F
:101140000D2C06D10D48008840F480400B490880E2
:1011500010E00A480088C0F30D0009490C54074804
:101160000088401C05490880084600880B2801DDDE
:101170000020088010BD0000001001401000002079
:101180006000002021B1828942F40052828104E093
:1011900082894DF6FF731A408281704770B502460E
:1011A000002400230025002040F66A16B14200D139
:1011B00000BFC1F3421501F01F03012606FA03F335
:1011C000012D02D19689334006E0022D02D1168A04
:1011D000334001E0968A33400C12012606FA04F4EB
:1011E0001688344013B10CB1012000E0002070BD1E
:1011F000F0B50346002400260025002040F66A17BB
:10120000B94200D100BF1846C1F3421401F01F06D5
:10121000012707FA06F5012C01D10C3004E0022C5D
:1012200001D1103000E014301AB107682F43076075
:1012300002E00768AF430760F0BD00002DE9FF47FB
:1012400005460E460024A14600BFA046B08900B165
:1012500000BF2C8A24F44054F08804432C82AC89CB
:1012600041F20C608443B088318908437189084396
:101270000443AC81AC8A24F44074B0890443AC824A
:101280006846FFF745FA2048854202D01F4885424C
:1012900002D1DDF80C9001E0DDF80890A88900F497
:1012A000004040B109EBC90000EB0910316849006A
:1012B000B0FBF1F707E009EBC90000EB091031685A
:1012C0008900B0FBF1F76420B7FBF0F004012009BE
:1012D000642101FB1078A88900F4004040B132205D
:1012E00000EBC800B0FBF1F000F00700044308E099
:1012F000322000EB08106421B0FBF1F000F00F0089
:1013000004432C81BDE8FF87001001400014014018
:1013100001468888C0F30800704700BFFEE700BFA1
:101320007047000010B504466FF00400FFF7DCFAC8
:10133000E11704EB5171C1F3C701074A1170104660
:10134000007800EB4001C1EBC0104FF6FF7101EADD
:10135000C0000249088010BD5A0000205C00002037
:1013600010B52DED088B3448008800F400400028AB
:101370005FD0324890ED000AF2EE0F0AB4EE600A38
:10138000F1EE10FA52D190ED020A10EE101A084652
:1013900000F034FE41EC1B0B9FED290B53EC102B9E
:1013A00000F044FC41EC190B244890ED010A10EECA
:1013B000101A084600F022FE41EC1A0B53EC192BD0
:1013C00000F032FD41EC180B00F042FB1E490860B2
:1013D0001A4890ED020A10EE101A084600F00EFEB0
:1013E00041EC1B0B9FED160B53EC102B00F01EFC79
:1013F00041EC190B114890ED010A10EE101A084645
:1014000000F0FCFD41EC1A0B53EC192B00F052FBE1
:1014100041EC180B00F01CFB0C4908600846D0EDAD
:10142000000A094890ED000A00F02EFA0020024957
:101430000880BDEC088B10BD10000020600000206B
:101440004E62105839B4B83F20000020240000201C
:101450002DED048B4FF4FA710420FEF7B3FFFFF774
:1014600051F84FF4A060FFF7F7F8FEF7D7FFA82078
:10147000FFF758FFFFF710F8142140F2E730FFF7AD
:1014800007FB532140F2E730FFF7F4FBFFF7BCFA0C
:10149000FFF762FB5648D0ED000A564890ED000A6F
:1014A00000F0F2F9A3E0FEF79FFFFFF759FF524863
:1014B00000780128F6D100204F4908704F48006895
:1014C00008B9012000E000204C4908604C48D0F8E1
:1014D000940208B9012000E000204849091D086075
:1014E0004848008800F08EFB41EC190B9FED460B3D
:1014F00053EC102B00F09AFB41EC180B00F0A8FA0B
:10150000434908604348008800F07CFB41EC190B1C
:101510009FED3D0B53EC102B00F088FB41EC180BBA
:1015200000F096FA3C490860324890ED000AB5EEAA
:10153000C00AF1EE10FA08D2354890ED000AFFEE2D
:10154000000A20EE200A80ED000A294890ED000AEA
:10155000B5EEC00AF1EE10FA08D22F4890ED000A5D
:10156000FFEE000A20EE200A80ED000A00F060F88D
:10157000B2EE0F0A294880ED000A254890ED000AD6
:101580002548D0ED000A30EE200A10EE101A084669
:1015900000F034FD41EC190B9FED210B53EC102BA7
:1015A00000F044FB41EC180B00F052FA1B49486074
:1015B000194890ED000A1648D0ED000A30EE600A96
:1015C00010EE101A084600F019FD41EC190B9FEDC2
:1015D000160B53EC102B00F029FB41EC180B00F01C
:1015E00037FA0E4988600C210C4800F023FA5AE7BC
:1015F00024000020200000205000002090024242E1
:1016000000004242560000207AC6BE64E3C1763F25
:1016100018000020580000201C0000206C00002052
:10162000000000000000E03F60E5D022DBB924406C
:1016300010B52DED048B844890ED000AB5EEC00A7C
:10164000F1EE10FA06D290ED000AFFEE000A20EE4D
:10165000200A02E07C4890ED000AB0EE408A7B4808
:1016600090ED000AB5EEC00AF1EE10FA06D290ED48
:10167000000AFFEE000A20EE200A02E0734890ED17
:10168000000AF0EE408A724890ED000AB5EEC00AFA
:10169000F1EE10FA06D290ED000AFFEE000A20EEFD
:1016A000200A02E06A4890ED000AB0EE409A6948CC
:1016B00090ED000AB5EEC00AF1EE10FA06D290EDF8
:1016C000000AFFEE000A20EE200A02E0614890EDD9
:1016D000000AF0EE409A39EE480A5F4880ED000AB1
:1016E00039EEE80A5D4880ED000A5B4890ED000A9B
:1016F0005B48D0ED000A70EE600A5A48008800EEA0
:10170000100AB8EE400A584890ED001A01EE200A7F
:101710005648D0ED000A504890ED001A00EE810ABC
:10172000D0ED000A4E4890ED001AF0EE001A41EE9E
:10173000C10A4F4890ED001A70EE810A4D4890EDB5
:10174000001A01EE200ABCEEC00A10EE100A45494C
:101750000880424890ED000A4748D0ED000A70EE3C
:10176000600A4648008800EE100AB8EE400A3E487B
:1017700090ED001A01EE200A3C48D0ED000A3748EF
:1017800090ED001A00EE810AD0ED000A3A4890ED83
:10179000001AF0EE001A41EEC10A394890ED001A25
:1017A00070EE810A334890ED001A01EE200ABCEE7B
:1017B000C00A10EE100A31490880294890ED000A4D
:1017C0002B4880ED000A244890ED000A244880ED63
:1017D000000A294890ED000A294880ED000A1F48B8
:1017E00090ED000A244880ED000A1E480088002879
:1017F00003DC00201B49088008E01A480088B0F587
:101800007A7F03DB4FF47A70164908801B48008802
:10181000002803DC00201949088008E017480088E8
:10182000B0F57A7F03DB4FF47A70144908800D48D5
:1018300001881448FFF7FAFB104801881148FFF7A8
:10184000F7FBBDEC048B10BD180000201C0000202D
:101850002000002024000020380000204400002048
:101860003C0000202A0000202C0000203000002036
:101870004000002034000020480000202800002004
:101880004C0000200004004010B52DED028BB0EE9E
:10189000408AF0EE608A574890ED000AB5EEC00A23
:1018A000F1EE10FA08D10020534908605349C1F8FD
:1018B0009402534908802EE04E4890ED000AB5EEA0
:1018C000C00AF1EE10FA11DD01204B49086000203A
:1018D0004A49C1F894029FED4B0A28EE000ABCEE7B
:1018E000C00A10EE100A4649088014E00020424960
:1018F000086001204149C1F894029FED420A28EE98
:10190000000AFFEE000A20EE200ABCEEC00A10EE2C
:10191000100A3B4908803C4890ED000AB5EEC00A29
:10192000F1EE10FA08D10020384908603849C1F8B2
:101930009002384908802EE0334890ED000AB5EE59
:10194000C00AF1EE10FA11DD0120304908600020D4
:101950002F49C1F890029FED2B0A28EE800ABCEEB9
:10196000C00A10EE100A2B49088014E00020274915
:10197000086001202649C1F890029FED220A28EE56
:10198000800AFFEE000A20EE200ABCEEC00A10EE2C
:10199000100A204908801A480088002803DC00202B
:1019A0001749088008E016480088B0F57A7F03DB05
:1019B0004FF47A701249088011480088002803DC2F
:1019C00000200F49088008E012480088B0F57A7FAF
:1019D00003DB4FF47A700F490880094801880E48EC
:1019E000FFF724FB0B4801880B48FFF721FBBDECF8
:1019F000028B10BD20000020BC024042000040428B
:101A00002A0000200000FA44240000208C024342F7
:101A100000004342280000200004004000BF0449A9
:101A2000098801F040010029F9D0014988807047F8
:101A30000010014010B503460C46002200BF985C20
:101A4000FFF7ECFF501C82B2A242F8DB10BD000091
:101A500021F00042A2F16052B2F5801F01F0004374
:101A600028BFD2F17F6C0BD95FEA001C43EAC202A7
:101A700042EB507018BF704728BF20F0010070473C
:101A8000B2F5801FBCBF184670474FEA410C1CF5E9
:101A9000001F02D2084600F027BB70B500F070F9B5
:101AA00000000089FFF7F6BF4FF00040A0F580006E
:101AB0007047000010B591EA030F48BF83F0004360
:101AC00000F1BA81841A71EB030C05D2121943EBB1
:101AD0000C03001B61EB0C01DFF824E14FEA115409
:101AE000A4EB135C1EEA430F18BF9EEA445F73D059
:101AF00023EA0E03DCF1200E21EA045143F48013A3
:101B000032D322FA0CFE10EB0E0023FA0CFE41EB4E
:101B10000E01CCF1200E03FA0EFE10EB0E0051F177
:101B20000001B1F5801FCCF1200E32D201EB04513F
:101B300012FA0EF2BDE8104058BF7047401C38BF83
:101B40005FEA420218BF7047002814BF20F001006E
:101B500041F100014FEA410313F5001F38BF704700
:101B6000A1F1C04100F05AB9012A43EB0302ACF1E4
:101B7000200CDCF11F0E32BF4FF0000E23FA0CF3E5
:101B800010EB030041EB0451B4EB115FD0D0A1EB9B
:101B9000045101F5801149085FEA300001EB04515E
:101BA0000ED350F1000038BF12FA0EFE08D1BDE886
:101BB0001040C9E7401C38BF5FEA4202CAD1C3E700
:101BC000BDE810404FEA410313F5001F38BF7047CE
:101BD000A1F1C04100F022B99EEA445F08D011EAA9
:101BE0005E0FBDE8104004BF01F0004100207047C7
:101BF000BDE8104070B500F0C3F800BF64FBBE3E06
:101C00000000E0FFB0FA80F310FA03F10AD0C3F14C
:101C10001D0303F580634FEA41504FEA035202EB84
:101C2000D12170474FF0000070470000DFF848C135
:101C300070B51CEA111E1EBF1CEA13159EEA0C0F9C
:101C400095EA0C0F00F06F8081EA030423EA4C133D
:101C50004EEAD47E21EA4C1141F4801143F4801302
:101C6000AE44A1FB024CA0FB0365AEF17F7E3619AA
:101C700055EB0C05A1FB034C4CF10003A0FB021C2F
:101C800016EB0C06654153F10003094218BF46F0FC
:101C9000010613F4007F0BD14FEA03314FEA053000
:101CA000340341EA155140EA16506FF003020AE08E
:101CB0004FEAC3214FEAC520F40241EA555140EAF8
:101CC00056506FF0020202EB2E4201EB025585EAFC
:101CD000CE710AD05FEA440C18BF24F0004450F1E2
:101CE000000041F1000120EAD47040F2FE7C624520
:101CF00000D270BDA84214BF4FF080444FF0404462
:101D0000002E08BF0024BEF1806FA8BFA1F1C04122
:101D1000BDE8704080F282804FF0000001F1C041C8
:101D200001F0004170479EEA0C0F0CEA131518BF32
:101D300095EA0C0F06D04FF0000081EA030E0EF07A
:101D4000004170BD00F01CF88900013E00F007B8AA
:101D500000F009B84FEA430C5FEA5C5C08D081EA06
:101D6000030100F05BB84FEA410C5FEA5C5CF6D11E
:101D70004FF00000014970470000FF070000F87FA6
:101D80000EF1020E2EF0030E5EF8046B364205D4FF
:101D9000012A43EB030515F5001F12D8012841EB7A
:101DA000010C1CF5001F0CD80ED14FEAD17C15F5A3
:101DB000001F0CEB4C0C0CF1020C08BF4CEBD37C5D
:101DC00004E04FF0080C01E04FEAD37C0CEB4C052B
:101DD00026FA05F606F00706B6F1040C06D20EEB5D
:101DE000860CBDE870404CF0010C6047DFE80CF059
:101DF000090B02024FF000414FF00000A1F5002155
:101E000070BD19461046012851EB010418BFD4F5E6
:101E1000001484BF002001F0004170BD0808A0F547
:101E200000114FEA3101704710B591EA030F48BF26
:101E300083F000433FF546AE841A71EB030C07D2E2
:101E400012198CF0004C43EB0C03001B61EB0C01EE
:101E5000DFF8A4E14FEA1154A4EB135C1EEA430F30
:101E600018BF9EEA445F00F0B08023EA6E0352423E
:101E700021EA0451C3EB6E0338BF5B1EDCF1200E78
:101E800025D322FA0CFE10EB0E0043FA0CFE41EBB8
:101E90000E01CCF1200E03FA0EFE10EB0E0051F1F4
:101EA0000001CCF1200E29D412FA0EF201EB0451FC
:101EB000BDE8104058BF7047401C1CBFB2F1004F36
:101EC000704700280CBF491C20F00100704712EB3E
:101ED000020E43EB030218BF4FF0010E4EEA42021E
:101EE000ACF1200CDCF11E0E54D943FA0CFE10EBC1
:101EF0000E0051F1FF31CCF11E0ED5D50EF1010EC1
:101F000012FA0EFE404141EB010101EB445C5FEA35
:101F10005C5C10D910EBDE7001EB045138BFBEF1F0
:101F2000004FBDE8104018BF704700280CBF491C87
:101F300020F00100704730D24FEAD42C11F5001187
:101F400024F400641BD0B1FA81F20B3AA41AA41E47
:101F5000D2F12003914030FA03F31943904001EB92
:101F6000CC71002C01EB0451BDE81040A8BF7047B4
:101F700001F1C0414FF0000001F000417047B0FA9C
:101F800080F310FA03F100D110BDE41A173C4805A4
:101F9000C90AE4E701EB045110BD491001EB0451FB
:101FA000BDE810404FEA300002E04FF000017047FA
:101FB0004A0008BF0042F8D0B2F5001F28BF7047A2
:101FC00001F000414FF0000070479EEA445F07D0E7
:101FD00011EA5E0FBDE8104004BF002100207047E9
:101FE000BDE8104070B5FFF7CBFE00BF40DFF63E06
:101FF00083F00041104670470000E0FF43004FEAC5
:10200000D30C4FEA3C0C43401FBF40070CF160511A
:1020100013F0FE4F70471CF0006F03D100200CF04E
:10202000004170470CF0004343EA507010B540EA9D
:10203000CC0000F00EF800BF000000924FEA000153
:10204000FFF7ECBE4FF000414FF00000A1F500217A
:1020500070470EF1020E2EF0030E5EF8044B244280
:1020600004D44FEA4102B2F17F4F11D84FEA400346
:10207000B3F17F4F0CD80ED14FEAD07CB2F17F4F35
:102080000CEB4C0C0CF1020C08BF4CEBD17C04E0C7
:102090004FF0080C01E04FEAD17C0CEB4C0324FA22
:1020A00003F404F00704B4F1040C06D20EEB840C24
:1020B000BDE810404CF0010C6047DFE80CF0070869
:1020C00002024FF00040A0F5800010BD084642001B
:1020D00018BFD2F1807288BF00F0004010BD4FF0F1
:1020E0004070E1EE100A7047FF2141EAD050C00570
:1020F000704700001421000800000020600000006C
:10210000C401000874210008600000207806000067
:10211000E0010008000000000102030401020304C2
:102120000607080900000000000000000000000091
:10213000000000000000000000000000000000009F
:1021400000204B4600007A4400007A440000000062
:10215000000000000000000000000000000000007F
:10216000000000000000000000000000000000006F
:04217000000000006B
:040000050800018965
:00000001FF
